:400000000080002011000000DD040000DD04000008B5044B1A6803F53F5302331A6000F065FA00BFFA46004010B5054C237833B9044B13B10448AFF300800123237010BD56
:400040005081FF1F00000000C8160000084B10B51BB108490848AFF300800848036803B910BD074B002BFBD0BDE81040184700BF000000005481FF1FC8160000C880FF1F36
:400080000000000008B50123034A1370034A137001F0F4F808BD00BF7691FF1F6C81FF1F08B500F0BBFA064B1870732802D10122044B5A706F2802D10122024B9A7008BDA0
:4000C000FC91FF1F6C81FF1F38B562B6374800F0FFFA374801F0F4F800F092FA01F076F900F036FF00F048FF324B1B78012B10D013B1022B41D0F7E72E4B0022DA70012245
:400100001A702D4B1B789342EED100222A4B1A70EAE7012000F0B6FA002415E0002000F033FF00F049FF80B2224B03EB44039880224D0A22294601F076FA284600F090FA11
:400140001F4800F08DFA0134B4F5806FE6DB194B5B78002BC8D0174B02221A7000225A70C2E7144C04EB4504207900F06DFAA088000A00F069FA013500E00025B5F5806F93
:40018000EFDB0C4AD3780133DBB2D370927832B1092B04D9074B00221A709A70A4E7054B01221A7000229A709EE700BF85000000A10000006C81FF1F7691FF1F9891FF1F35
:4001C000CC160000FEE700BFF0B40022174611E050F82760F3B226F0FF0608E001EB420511F812406D78A5550132013BDBB2002BF4D10137192FEBD9F0BC7047114B1B78FF
:40020000DBB203F00701104A11701B090132137080220E4B1A7042F21002C0331A80102203F69C031A70022268331A7040F2011246331A80012215331A704422A3F2E5233C
:400240001A707047CF0100496E5800403C51004008B50A46002101F0F3F908BD08B501F0E4F908BD38B50024324B1C80502202331A70EF2202331A8018232F4A13704FF47C
:400280009C71023211800232137004222B492C48FFF7E4FF02222B4B1A7008224FF040231A70032103F500731970274B1B78DBB226490B70264B1A8041F25122023B1A8038
:4002C00019250CE0234B1B7803F0010343EA440404F003044FF4F07001F052F9013D0DB1032CEFD115B90320FFF76CFF1A4B4FF480721A8007221A70002218490A70482004
:40030000023108701A700222033B1A7004220A331A70134A137843F007031370013A137843F001031370013A137843F08003137038BD00BF80400040864000408003004803
:40034000004100400043004008010049A146004022420040254200400440004006400040A2430040012807D8044B53F820201844017A13780B431370704700BFD016000015
:40038000012808D8044B53F820201844017A137823EA010313707047D016000038B572B63A4A137843F00403137000240BE0384863001A19510001440A46098AD068FFF71A
:4003C00047FF0134E4B2082CF1D900240BE03049A3001819420088188022816C406CFFF73DFF0134E4B2002CF1D02A494FF09040FFF7EAFE0A25284B1D7004212748FFF772
:4004000027FF04212648FFF723FF264A137843F0020313701032137843F002031370224C237843F040032370A2F58632513A137843F01003137008221C491D48FFF70EFF76
:4004400008221C491C48FFF709FF2A461B491C48FFF704FF08221B491B48FFF7FFFE1B4A137843F008031370194D61232B70FFF7F9FE81232B700122164B1A70FFF7BEFE54
:400480000E2221461448FFF7E9FE38BDE8460040D01600006800004883580040007600400876004003500140A04300405C030048F251004064030048125100406C030048FA
:4004C000205100407803004862510040224300400048004004000840B043004008B501F05FF803680C2B00D1FEE7FEE708B5104E104D16E029686B68AC68002204E051F872
:40050000040B43F8040B0432A242F8D1E868002203E0002143F8041B04328242F9D11035013E002EE6D101F041F8FFF7CDFDFEE701000000B81B000008B5114A114B1A60F1
:40054000114A136843F40073136000230AE0032B03D80E4A52F8231000E00D490D4A42F8231001332F2BF2D90B4B1A780B4B1A70084A0B4B1A60FFF711FF00F0C5F808BDE8
:400580000004FA050CED00E014ED00E000000000DD0400000080FF1FBC760040C080FF1F08ED00E07222074B1A702022013B1A7006225D3B1A70472210331A7002224F33BC
:4005C0001A7070478D64004010B500F0E1FF04460A4A137843F020031370013A137843F0100313700232137843F01003137000F07DF8204600F0D0FF10BD00BF9D64004084
:4006000008B5054B1B7823B9FFF7CCFF0122024B1A70FFF7D9FF08BD7491FF1F084B1B78DBB213F0200F06D0064A1078C0B213F01E0F02D17047002070470020704700BFE1
:400640006C6400404D640040034B1B7813F0040FFAD1024B187070476E6400404E64004038B5074B1B782BB938BDFFF7EDFF0134A4B201E005460024285D0028F5D138BD57
:400680007491FF1F044A137803F07F03C001C0B218431070704700BF60510040014B1B685865704708ED00E04001C0B2014B1870704700BF05E400E02022014B1A607047B7
:4006C00000E100E02022014B1A60704780E100E010B50446FFF7F6FF2046FFF7DFFF0720FFF7E2FFFFF7E8FF10BD00BF054A137843F0040313701032137843F0040313707D
:40070000704700BFA24300400B4A7F2313708021517007E0DA0002F1804202F5F042013BDBB21370002BF5D1DB0003F1804303F5F04300221A707047CC80FF1F172815D8B0
:4007400031B103010A495A5C42F020025A5405E0030107495A5C02F0DF025A540001044A835C43F00103835400207047012070471070004017280BD80001064A835C03F028
:40078000F103490001F00E011943815400207047012070471070004041F6FF73994201D14FF4005141F6FF739A4201D14FF40052172808D8C00000F1804000F5EC408180D4
:4007C000C280002070470120704700BF172805D8034B03EB0010417200207047012070471070004017281BD810B4C00000F1804404F5EC44D201D2B201F07F01114321707E
:400800009DF804201201D2B203F00F03134363709DF8083003F00F03A3700020E07001E00120704710BC704710B500F0B1FE0A4B5B78182B0BD9084A1478013B5370E30036
:4008400003F1804303F5F0431B78137000E0FF2400F0A2FE204610BDCC80FF1F10F0800F0CD111F4704F0BD1C00000F1804000F5F04001808270C370002070470120704759
:400880000120704710F0800F08D1C00000F1804000F5F0408180C280002070470120704701BE704708B5034B1B7A00FB03F000F067FE08BDD480FF1F70B504460E46074BCB
:4008C0001D681F2802D90020FFF7EAFF04F01F04103455F8240045F8246070BD08ED00E038B504460D46072902D90020FFF7D8FF1F2C02D90020FFF7D3FF04F01F0000F12F
:40090000604000F564406D01EDB2057038BD00BF38B59DF81040651EEDB2032D51D8013809282ED8DFE800F0052D2D052D2D0F192D230F2B03D92548007840B222E0244843
:40094000007840B21EE00F2B03D92248007840B218E02148007840B214E00F2B03D91F48007840B20EE01E48007840B20AE00F2B03D91C48007840B204E01B48007840B242
:4009800000E0002001EB401101FB02F2D20B91B20D2B0BD8C3F10E0192B20A4191B2621E124800EB82020133937005E0631E0F4A02EB83030F229A70013C0C4B23F824106A
:4009C00038BD0020FFF76CFF38BD00BF180100491C010049190100491D0100491A0100491E0100491B0100491F0100497891FF1FF8B5074600F0CCFD06460D4D2B7843F04B
:400A000003032B700B4C237843F0030323700A4B1F700320FFF746FF2B7803F0FC032B70237803F0FC032370304600F0B5FDF8BDF8460040F946004092580040F8B50446DA
:400A40000022C04B1A7401285AD13822BE4B1A70042202331A70062201331A70002501331D7001331D703F2201331A7002331D7001331D7001331D7001260A331E70502241
:400A800003F527631A700A23B04A13702C210132117001321570442103321170482101321170013216700232157001321570013213704322A64B1A705220FFF799FF582255
:400AC000A44B1A7001331D700223A34A137001321370A24B1D7001331D70284600F0BAFA43F233329E4B1A603146052000F0D6FA3146BA2000F056FB9A492846FFF7DCFE18
:400B0000022C5DD13822904B1A70042202331A70062201331A70002501331D7001331D703F2201331A7002331D7001331D7001331D7001260A331E70502203F527631A7055
:400B4000272201331A702C2201331A7001331D70552203331A705A2201331A70052701331F7002331E70112201331A70192201331A70972201331A704420FFF739FF582211
:400B8000744B1A7001331D7005331F70022201331A7001331D7001331D70284600F05AFA4FF47A426E4B1A603146384600F076FA3146252000F0F6FA6B492846FFF77CFE99
:400BC000032C5DD13822604B1A70042202331A70062201331A70002501331D7001331D703F2201331A7002331D7001331D7001331D7001260A331E70502203F527631A70C4
:400C0000272201331A702C2201331A7001331D70552203331A705A2201331A70052701331F7002331E70112201331A70192201331A70972201331A704420FFF7D9FE5822B1
:400C4000444B1A7001331D7005331F70022201331A7001331D7001331D70284600F0FAF94FF47A423E4B1A603146384600F016FA3146252000F096FA3C492846FFF71CFEE8
:400C8000042C5DD13822304B1A70042202331A70062201331A70002401331C7001331C703F2201331A7002331C7001331C7001331C7001250A331D70502203F527631A703A
:400CC000272201331A702C2201331A7001331C70552203331A705A2201331A70052601331E7002331D70112201331A70192201331A70972201331A704420FFF779FE582255
:400D0000144B1A7001331C7005331E70022201331A7001331C7001331C70204600F09AF94FF47A420E4B1A602946304600F0B6F92946252000F036FA0D492046FFF7BCFD64
:400D4000F8BD00BF7891FF1F004E00408558004091580040945800409A5800409C5800400092FF1F25100000291000002D100000311000002DE9F04182B0394D4FF001088F
:400D800085F80080374E00247474102000F074F9102000F0F5F907212046FFF7A1FD0427314B1F7001331C7007331C702F4A137843F0180313702E4B1C7003F2F5231C70B9
:400DC00001331C700A22A3F209331A7001331C7002331C705B2205331A705E2201331A7004331C701422A3F68C231A70CDF8008010234FF4004248F6F0510220FFF788FDCA
:400E00000223009310234FF4004249F2DA012046FFF77EFD0323009310234FF4004249F2DA012046FFF774FD009710234FF4004249F2DA012046FFF76BFD2B78013B06EB08
:400E400083039A780B4B1A702B78013B36F82320094B1A802878FFF7F1FD02B0BDE8F081E480FF1F7891FF1F96580040075B0040935800400E4E00400C4E004070B500F081
:400E800087FB0646294B1B78294B1A7842F001021A701A7842F010021A7010331A7842F001021A701A7842F010021A70214D2B7843F002032B70204C237843F0020323708E
:400EC0001E4A137843F0030313700320FFF7EAFC2B7803F0FD032B70237803F0FD032370174A137843F0060313707A22154B1A70154A137843F0010313701032137843F01D
:400F0000010313700F3A137843F0010313701032137843F00103137001230C4A1360A2F5C0721360304600F037FB70BDE480FF1FAA430040F8460040F94600409158004052
:400F40007758004082580040A143004080E200E008B5084B9B7C4BB9064BDB7C13F0FF0F01D1FFF707FF0122024B9A74FFF786FF08BD00BF7891FF1F024A137843F001037E
:400F800013707047004E0040094B1B7C13F0FF0F03D0074B5B7CDBB203E0064B1B7803F00103012B01D00028EED01846704700BF7891FF1F014E0040154B1B7803F00303CD
:400FC000012B07D8134B1888023B1B889BB243EA004013E0022B0AD10E4B1888023B1B7843EA00430C4A107843EA002006E00B4B188883B2074A108843EA0040084B1B7C9E
:4010000013F0FF0F02D00022054B5A74704700BF144E0040124E0040114E0040104E00407891FF1F704700BF704700BF704700BF704700BF10B5002404E02046FFF7A0F9D7
:401040000134E4B2012CF8D9FF22014B1A7010BDE580FF1F10B50446FFF7ECFF2046FFF781F9014B1C7010BDE580FF1F014B188880B2704780400040034B1A7800F0F800D5
:4010800010431870704700BF82400040024B187800F00700704700BF8240004070B505460E46FFF7F3FF0446FFF7E0FFA84256D02B4B1B7803F0010294B900B185B938B98A
:4010C000284B1D80284A137803F0BF03137070BD254A137843F040031370224B1D8070BD22B3002321490B7001240F310C7004310B700C390B7803F07F030B701A4B1B7836
:4011000013F0080F00D08DB9194B18800721013B1970164B1B7813F0010FFAD110490B7803F0FE030B700021104B19700C4B1B7813F0010F0DD00E4B1D800EB1032200E0E0
:4011400001220A4B1A70094B1B7813F0010FFAD170BD044B1D8002490B7813430B7070BDA243004080400040824000400140004002400040014B188880B270470041004043
:40118000034B1A7800F0F80010431870704700BF02410040024B187800F00700704700BF0241004070B505460E46FFF7F3FF0446FFF7E0FFA84256D02B4B1B7803F00102EC
:4011C00094B900B185B938B9284B1D80284A137803F0BF03137070BD254A137843F040031370224B1D8070BD22B3002321490B70012413310C7004390B7008390B7803F0F5
:401200007F030B701A4B1B7813F0080F00D08DB9194B18800721013B1970164B1B7813F0010FFAD110490B7803F0FE030B700021104B19700C4B1B7813F0010F0DD00E4B4B
:401240001D800EB1032200E001220A4B1A70094B1B7813F0010FFAD170BD044B1D8002490B7813430B7070BDA143004000410040024100400140004002400040024B187859
:40128000C0F38000704700BF81450040014B1B685864704708ED00E04001C0B2014B1870704700BF01E400E00222014B1A60704700E100E00222014B1A60704780E100E062
:4012C00010B50446FFF7F6FF2046FFF7DFFF0720FFF7E2FFFFF7E8FF10BD00BF10B500F0CDF800F025F9074C01212078FFF726FA01216078FFF722FA002000F0DBF800F0C9
:4013000073F810BD9091FF1F70B505460E464FF48043020C0121084600F074F8094C2070A078012302463146FFF798FA45F68332A9B2A078FFF7A6FAA1782078FFF746FA4A
:4013400070BD00BF9091FF1F70B505460E464FF48043020C0121084600F072F8094C6070E078012302463146FFF778FA45F68332A9B2E078FFF786FAE1786078FFF726FA78
:4013800070BD00BF9091FF1F10B500F0BBF8022000F082F8042000F0A5F800F0EBF8FFF743FA084CA070FFF73FFAE070064C4FF47A712046FFF7A8FF642104F57A70FFF793
:4013C000C3FF10BD9091FF1F2017000008B5054B1B7923B9FFF7D8FF0122024B1A71FFF77DFF08BD9091FF1F054A137843F0020313701032137843F002031370704700BF9A
:40140000A2430040F0B583B016461F460B4D00242C700194009423460A4601462046FFF7E1F93A4631462878FFF7B6F902212878FFF7A0F9287803B0F0BD00BFE680FF1FA6
:40144000F0B583B016461F460B4C012525700023019300930A4601462846FFF7C3F93A4631462078FFF798F902212078FFF782F9207803B0F0BD00BFE780FF1F054A137868
:4014800043F0080313701032137843F008031370704700BFA8430040054B1A7802F0FD021A701A7800F0020010431870704700BF2C580040014B1870704700BF835B0040DE
:4014C000064B1B78C3F3810303F19243063393F83831DBB2024A1370704700BF2C5800400B46004008B5064B1A7802F0F3021A701A7800F00C0010431870FFF7E1FF08BD9C
:401500002C58004008B50020074B187001331870064A137843F008031370FFF7E3FF0220FFF7BAFF08BD00BF2C5800409F5A0040084A137843F060031370A2F5A652133ADC
:40154000137843F0080313701032137843F008031370704777580040054B1A7802F0FC021A701A7800F0030010431870704700BF5E58004008B50220FFF7EEFF08BD00BF5D
:401580000230800803D000BF01380046FCD17047EFF3108072B6704780F31088704700BF014B1868704700BF4881FF1F0E4B70B51E460E4C0025E41AA410A54204D056F8C5
:4015C000253098470135F8E700F0E4FA084B094C1E46E41AA4100025A54204D056F8253098470135F8E770BDA01B0000A01B0000A01B0000A81B0000931E222B10B50C4669
:4016000002D90020087010BD0A2A06D1002804DA2D230B704042012100E00021214400F017F8204610BDFFF7E7BF10B5431E0A44914204D011F8014B03F8014FF8E710BD4F
:4016400003460244934202D003F8011BFAE77047F0B58BB003460F466D461A4C04F1200E2E4620686168083403C674453546F7D1217920683171911E222930604FF0000078
:4016800001D938701CE07D1EB3FBF2F402FB14330AAE334413F8283C411C05F8013F23460CB10846F0E77C543A18C11A8B4206DAF95C1478FC5402F801190133F5E7384639
:4016C0000BB0F0BD6E1B0000000000000A000000035B00402443004040000000005100401000405100402000C0510040100000000140800C000D01400003001401400008FC
:4017000000400140000A004C014000020050014020000000800C0140DC020048800000008080818182828384848585868787888889898A8B8B8C8C8D8E8E8F8F9090919258
:40174000929393949595969697979899999A9A9B9B9C9C9D9E9E9F9FA0A0A1A1A2A3A3A4A4A5A5A6A6A7A7A8A8A9AAAAABABACACADADAEAEAFAFB0B0B1B1B2B2B3B3B4B47D
:40178000B5B5B6B6B7B7B8B8B8B9B9BABABBBBBCBCBDBDBDBEBEBFBFC0C0C1C1C1C2C2C3C3C3C4C4C5C5C5C6C6C7C7C7C8C8C8C9C9CACACACBCBCBCCCCCCCDCDCDCECECE92
:4017C000CFCFCFD0D0D0D0D1D1D1D2D2D2D2D3D3D3D4D4D4D4D5D5D5D5D6D6D6D6D6D7D7D7D7D8D8D8D8D8D8D9D9D9D9D9DADADADADADADADBDBDBDBDBDBDBDBDCDCDCDC4F
:40180000DCDCDCDCDCDCDDDDDDDDDDDDDDDDDDDDDDDDDDDDDDDDDDDDDDDDDDDDDDDDDDDDDDDDDDDDDDDDDDDDDDDDDDDDDDDDDDDCDCDCDCDCDCDCDCDCDCDBDBDBDBDBDBDB86
:40184000DBDADADADADADADAD9D9D9D9D9D8D8D8D8D8D8D7D7D7D7D6D6D6D6D6D5D5D5D5D4D4D4D4D3D3D3D2D2D2D2D1D1D1D0D0D0D0CFCFCFCECECECDCDCDCCCCCCCBCB70
:40188000CBCACACAC9C9C8C8C8C7C7C7C6C6C5C5C5C4C4C3C3C3C2C2C1C1C1C0C0BFBFBEBEBDBDBDBCBCBBBBBABAB9B9B8B8B8B7B7B6B6B5B5B4B4B3B3B2B2B1B1B0B0AFB9
:4018C000AFAEAEADADACACABABAAAAA9A8A8A7A7A6A6A5A5A4A4A3A3A2A1A1A0A09F9F9E9E9D9C9C9B9B9A9A99999897979696959594939392929190908F8F8E8E8D8C8C7D
:401900008B8B8A8989888887878685858484838282818180807F7E7E7D7D7C7B7B7A7A79787877777676757474737372717170706F6F6E6D6D6C6C6B6A6A69696868676675
:401940006665656464636362616160605F5F5E5E5D5C5C5B5B5A5A595958585757565555545453535252515150504F4F4E4E4D4D4C4C4B4B4A4A494948484747474646452A
:401980004544444343424242414140403F3F3E3E3E3D3D3C3C3C3B3B3A3A3A393938383837373736363535353434343333333232323131313030302F2F2F2F2E2E2E2D2D2A
:4019C0002D2D2C2C2C2B2B2B2B2A2A2A2A29292929292828282827272727272726262626262525252525252524242424242424242323232323232323232322222222222253
:401A000022222222222222222222222222222222222222222222222222222222222222222222222323232323232323232324242424242424242525252525252526262626E7
:401A4000262727272727272828282829292929292A2A2A2A2B2B2B2B2C2C2C2D2D2D2D2E2E2E2F2F2F2F3030303131313232323333333434343535353636373737383838D1
:401A800039393A3A3A3B3B3C3C3C3D3D3E3E3E3F3F404041414242424343444445454646474747484849494A4A4B4B4C4C4D4D4E4E4F4F505051515252535354545555567D
:401AC0005757585859595A5A5B5B5C5C5D5E5E5F5F6060616162636364646565666667686869696A6A6B6C6C6D6D6E6F6F70707171727373747475767677777878797A7AE1
:401B00007B7B7C7D7D7E7E7F80848A8F94989EA2A8ACB2B6BCC0C6CAD0D5DADEE4E8EEF2F8FCF8F2EEE8E4DEDAD4D0CAC6C0BCB6B2ADA8A29E98948F8A84807A76706B66ED
:401B4000615D58534E49443E39342F2A25211C17120D0803080D12171C21252A2F34393E44494E53585D61666B70767A4300303132333435363738396162636465666768ED
:401B8000696A6B6C6D6E6F707172737475767778797A0000F8B500BFF8BC08BC9E4670474D00000039050000F8B500BFF8BC08BC9E46704729000000C81B0000C880FF1F2F
:401BC00088000000B8100000000000007F800000030000000000E02EC05D00001800000000366E0101FFFFFF000000000000000000000000000000000000000000000000AD
:401C000000000000000000006C1B0000000000000000000000000000000000000000000000000000000000000000000000000000000000000000000000000000000000001D
:401C40000000000000000000E880FF1F00000000000000000000000000000000000000000000000000000000000000000000000000000000000000000000000000000000DE
:401C80000000000000000000000000000000000000000000000000000000000000000000000000000000000000000000000000000000000000000000000000000000000024
:401CC00000000000000000000000000000000000000000000000000000000000000000000000000000000000000000000000000000000000000000000000000000000000E4
:401D000000000000000000000000000000000000000000000000000000000000000000000000000000000000000000000000000000000000000000000000000000000000A3
:401D40000000000000000000000000000000000000000000000000000000000000000000000000000000000000000000000000000000000000000000000000000000000063
:020000040003F7
:0200000480007A
:400000000245004001520040015A00400364004001030140050B0140130C0140430D01406D0E0140370F014001150140011B014005400140054101400242014004430140CC
:40004000024401400545014005460140034701400748014002490140024C0140034D014002500140025101400A01170214019F018C388D728E0FE602A804B201B308B50202
:40008000EC01090116021A021E0124042A0130023201340435013E153F1054185604580459045B045D205F010064010A081009080A020B840D900F2010A81508160418016C
:4000C00019211B181E041F052064210123022408298A2B0830103108324039163B803E104041430849204B805110520459015F02674A69146A8070A887408810898091088A
:4001000092109384950296049D02A188A4A8A708AA02B104B201B421C00FC2EFC46ECA0FCC0ECE2FD00BD20CD681D8B0E80102200326041305190604076209190B640D7F36
:400140000E081013120C151819081D1021012215240A2614270129672B182C032E14300F331F342035383610374039823A023B283E403F014045410246B047CE483849FFBE
:400180004AFF4BFF4EF04F44500C5401580459045A045B045C225D225F0166C06A406B0281808313840C8671870888108A40901092AC930C952C960397439E20A009A2D081
:4001C000A4DCA571A622A70EA814AD71AF06B21FB330B4E0B50FB7C0B988BAA0BB20BF04C002C704C9FFCA07CBFFCC40CD20CEF0CF05D008D804D904DA04DC22DD02DF01FA
:40020000E040E1A8E240E32001020321040406040A400E500F01100213091520170A19801A401B101C041E101F602010218822022304272B29022B182E402F2030A8370AD6
:40024000381039023B843C023D083F0142404320472048014F015003511455045604582059805A05C06DC2B8C47DCA57CCCECECFD025D208D60FEC30EC30338036203F40C5
:40028000CC30CE2086209740A620A780E6409740A78011409740A780C4407D20DE0101085220A910C008D4044508AA20B508D001EA023020A508CC082080234025109740B2
:4002C000A940AB80C860B040B510A420A508B020B508EC0C00040E04000E10020100400302FC400003FC8000000323003F0000003C0003031F00200333800C0008250048C3
:40030000045200280C030000000B001410800F1C2C60C0030000080000004100340506000100C00E18FFFFFF62A0F0410C00000000000213040404042222000100000000F2
:40034000000040020010301000101012000000000000000000000000000000000000000000003000040B0B0000000000820001F27200020000000000008080000000000086
:40038000BB00180100000000000000000000000000000000000000000000000000000000000000000000000000000000000000000000000000000000000000000000000069
:4003C00000000000000000000000000000000000000000000000000000000000000000000000000000000000000000000000000000000000000000000000000000000000FD
:4004000000000000000000000000000000000000000000000000000000000000000000000000000000000000000000000000000000000000000000000000000000000000BC
:40044000000000000000000000000000000000000000000000000000000000000000000000000000000000000000000000000000000000000000000000000000000000007C
:40048000000000000000000000000000000000000000000000000000000000000000000000000000000000000000000000000000000000000000000000000000000000003C
:0200000490006A
:0400000000004005B7
:0200000490105A
:04000000BC90ACAF55
:0200000490303A
:020000001628C0
:0200000490402A
:4000000000000000000000000000000000000000000000000000000000000000000000000000000000000000000000000000000000000000000000000000000000000000C0
:400040000000000000000000000000000000000000000000000000000000000000000000000000000000000000000000000000000000000000000000000000000000000080
:400080000000000000000000000000000000000000000000000000000000000000000000000000000000000000000000000000000000000000000000000000000000000040
:4000C0000000000000000000000000000000000000000000000000000000000000000000000000000000000000000000000000000000000000000000000000000000000000
:0200000490501A
:0C00000000012E16006900012E2116914F
:00000001FF